:100000000C9435000C945D000C945D000C945D0024
:100010000C945D000C945D000C945D000C945D00EC
:100020000C945D000C9495000C945D000C945D00A4
:100030000C945D000C945D000C945D000C945D00CC
:100040000C944E050C945D000C945D000C945D00C6
:100050000C945D000C945D000C945D000C945D00AC
:100060000C945D000C945D00550211241FBECFEF6F
:10007000D4E0DEBFCDBF11E0A0E0B1E0ECE2FFE0F4
:1000800002C005900D92AA37B107D9F712E0AAE78E
:10009000B1E001C01D92A530B107E1F710E0CAE65A
:1000A000D0E004C02297FE010E949107C836D10714
:1000B000C9F70E9447050C9495070C9400009A011B
:1000C000AB0160E070E48CE194EC0E94610620E0FA
:1000D00030E040E853E40E94FD0520E030E040E0DD
:1000E0005FE30E94FD050E94C9066093E101089547
:1000F0006115710511F46AE771E07093DF01609397
:10010000DE0108957093E7016093E601089510926F
:10011000B00087E08093B10081E0809370008BEEA7
:100120008093B2008BEE90E0089578941F920F9226
:100130000FB60F9211242F933F934F935F936F93BA
:100140007F938F939F93AF93BF93EF93FF932091F0
:10015000E001A22FBB27A7FDB095FD013196EE0F60
:10016000FF1FEE0FFF1F8091DE019091DF01E80F6E
:10017000F91F319780818EBD0DB407FEFDCF3197F9
:1001800080818EBD0DB407FEFDCF319780818EBD7D
:100190000DB407FEFDCF319780818EBD0DB407FEF3
:1001A000FDCF1BB8299A2998A050BF4F8C918BB9CD
:1001B000822F8F5F8093E0018931ACF01092E001D3
:1001C0008091E2019091E301A091E401B091E501F9
:1001D0000196A11DB11D8093E2019093E301A093CC
:1001E000E401B093E501E091E601F091E701309779
:1001F00009F009958091B2009091E101890F8093F7
:10020000B200FF91EF91BF91AF919F918F917F913C
:100210006F915F914F913F912F910F900FBE0F9073
:100220001F9018951BB88FEF8AB984B18E6284B97C
:1002300080E78CBD1EBC0DB407FEFDCF1EBC0DB407
:1002400007FEFDCF1EBC0DB407FEFDCF1EBC0DB4D6
:1002500007FEFDCF299A29988AE791E09093DF0164
:100260008093DE011092E0011092E2011092E3010E
:100270001092E4011092E5011092E7011092E6015C
:100280001092B00087E08093B10081E0809370000D
:100290008BEE8093B2008093E10108951BB88FEF3D
:1002A0008AB984B18E6284B980E78CBD1EBC0DB45E
:1002B00007FEFDCF1EBC0DB407FEFDCF1EBC0DB466
:1002C00007FEFDCF1EBC0DB407FEFDCF299A29986D
:1002D0008AE791E09093DF018093DE011092E001C4
:1002E0001092E2011092E3011092E4011092E501F4
:1002F0001092E7011092E6011092B00087E080931F
:10030000B10081E0809370008BEE8093B200809307
:10031000E1010895CF93DF93C22FDD27962F9770C9
:1003200028E030E0291B310902C0CC0FDD1F2A95DF
:10033000E2F755276695669566952D2F3327882316
:1003400091F0FA01EE0FFF1FEE0FFF1FE60FF11DF8
:10035000DF01A658BE4F8C91822B8C93E558FE4F3F
:1003600080818C2B15C0FA01EE0FFF1FEE0FFF1FCF
:10037000E60FF11DDF01A658BE4F922F90958C918C
:1003800089238C93E558FE4F9E012095808182231E
:100390008083DF91CF9108951F93CF93DF93809156
:1003A0001F016AE00E944607192FC0E0D0E06C2FC1
:1003B000660F1C1721F420EC4DE081E003C020EC17
:1003C0004DE080E00E948A012196CA30D10579F77C
:1003D00080911F016AE00E944607182FC0E0D0E01C
:1003E0008C2F6C2F660F660F8F5F181721F420E794
:1003F0004BE081E003C020E74BE080E00E948A01EF
:100400002196C430D10561F7DF91CF911F910895F6
:100410000F931F93CF93DF9395E0899FD001112411
:10042000A25DBE4F00E010E05527262F3327217034
:100430003070440F551F440F551F6695460F511DD0
:10044000EA01C658DE4F88819C912115310599F04B
:10045000807F929596959770FA01E658FE4F892B0A
:1004600080830F5F1F4F4C5F5F4F249611960530BE
:10047000110521F0E8CF8F709695EECFDF91CF91E7
:100480001F910F9108954FE00E940802089545E0E2
:100490000E9408020895019739F46F5F7F4F21F49D
:1004A00088EE91E00E944E0108956FEF7FEF81E0AA
:1004B00090E00E944B020895F8940E94730578948E
:1004C00008950E945C029B01AC018091E90190912A
:1004D000EA01A091EB01B091EC014496A11DB11D80
:1004E00082179307A407B50728F52093E9013093F5
:1004F000EA014093EB015093EC0126B183B12F71D7
:10050000992781709070E5E0880F991FEA95E1F7CF
:10051000282B2093ED018091EE018227982F9223C2
:100520009093F001922F909589238093EF0120936F
:10053000EE0108951092F0011092EF0108951F93BB
:1005400080911D018C3010F0883119F465E08DE048
:1005500002C065E08EE00E9447028091FD0190910B
:10056000FE01892B51F00E945C026093F1017093AF
:10057000F2018093F3019093F40110911D011D305D
:1005800008F01C508091FD019091FE010197D1F47B
:100590006091F1017091F2018091F3019091F40169
:1005A00028EE33E040E050E00E947407645F714041
:1005B000804090403CF060E08CE00E94470261E0A7
:1005C0008CE00FC01A3018F060E081E002C060E0FB
:1005D0008CE00E944702812F6AE00E94460761E09A
:1005E000892F0E9447028091FD019091FE010297A0
:1005F000D1F46091F1017091F2018091F301909139
:10060000F40128EE33E040E050E00E947407645F9C
:100610007140804090403CF063E08CE00E944702D3
:1006200064E08CE00FC080911E016AE00E944607E2
:1006300063E00E94470280911E016AE00E94460723
:1006400064E0892F0E9447028091FD019091FE0194
:10065000892BB1F46091F1017091F2018091F30165
:100660009091F40128EE33E040E050E00E947407DE
:10067000645F7140804090401CF062E08CE002C0FA
:1006800062E08AE00E9447020E94CC018091FD0155
:100690009091FE010397D1F46091F1017091F20104
:1006A0008091F3019091F40128EE33E040E050E0B6
:1006B0000E947407645F7140804090403CF060E0AD
:1006C0008CE00E94430261E08CE012C08091200126
:1006D0008A3018F060E081E002C060E08CE00E94A7
:1006E0004302809120016AE00E94460761E0892F61
:1006F0000E9443028091FD019091FE010497D1F484
:100700006091F1017091F2018091F3019091F401F7
:1007100028EE33E040E050E00E947407645F7140CF
:10072000804090403CF063E08CE00E94430264E033
:100730008CE014C0809121018A3028F06AE00E9488
:10074000460763E002C063E08CE00E9443028091B0
:1007500021016AE00E94460764E0892F0E9443025B
:1007600062E08BE00E9443021F9108958091F001A6
:1007700080FF27C08091FD019091FE01813091059D
:1007800019F482E090E005C08230910539F483E0ED
:1007900090E09093FE018093FD0113C0039719F43C
:1007A00084E090E0F6CF1092FE011092FD010E94CD
:1007B0005C026093F9017093FA018093FB019093BE
:1007C000FC018091F00185FF4BC08091FD0190916B
:1007D000FE018130910559F480911D018F5F809356
:1007E0001D018931E8F181E080931D010895823077
:1007F000910551F480911E018F5F80931E018C330F
:1008000078F110921E0108958330910559F480917A
:1008100020018F5F809320018D3010F181E0809363
:10082000200108950497E1F4909121019F5F909336
:100830002101E0912001E23019F4EDE1F0E008C07F
:10084000FF27EE5DFE4F8081E82FFF27E7FDF09543
:10085000892F9927E817F9071CF481E0809321017B
:100860000895EF92FF920F931F938091F101909161
:10087000F201A091F301B091F4018093F5019093FE
:10088000F601A093F701B093F8010E945C027B018E
:100890008C016093F1017093F2018093F3019093C6
:1008A000F4012091F9013091FA014091FB0150913E
:1008B000FC016217730784079507A4F48091F50182
:1008C0009091F601A091F701B091F801281B390B26
:1008D0004A0B5B0B2093F9013093FA014093FB0123
:1008E0005093FC018091F9019091FA01A091FB01D4
:1008F000B091FC0188519C4FAF4FBF4FE816F906ED
:100900000A071B070CF445C08093F9019093FA0184
:10091000A093FB01B093FC0180911F018F5F809336
:100920001F018C33B0F110921F0180911E018F5F67
:1009300080931E018C3368F110921E0180911D017D
:100940008F5F80931D01893120F081E080931D012C
:1009500020C08831F1F4809121018F5F80932101C3
:10096000409120019927E42FFF27EF5DFE4F208162
:10097000332727FD3095281739075CF491E09093D1
:100980002101842F8F5F809320018D3010F0909390
:1009900020018091F00180FF08C081E090E09093F9
:1009A000FE018093FD0110921F011F910F91FF9096
:1009B000EF9008950E9461028091FD019091FE01E7
:1009C000892B19F40E94310402C00E94B6030E94D0
:1009D0009F020895CF93DF93CDB7DEB721970FB66F
:1009E000F894DEBF0FBECDBF81E085B98FE188B935
:1009F0008EEF84B980EE87B926B183B12F71992724
:100A000081709070F5E0880F991FFA95E1F7282B17
:100A10002093EE010E945C026093E9017093EA0169
:100A20008093EB019093EC01CE0101960E944E0160
:100A30004091190150911A0160911B0170911C01A4
:100A400088EE91E00E945F000E945C026093F901D1
:100A50007093FA018093FB019093FC016093F50180
:100A60007093F6018093F7019093F8016093F10180
:100A70007093F2018093F3019093F40121960FB6E5
:100A8000F894DEBF0FBECDBFDF91CF9108950E94D5
:100A9000BA050E94EA040E94DA04FDCF1F920F9269
:100AA0000FB60F9211248F939F93AF93BF938091B2
:100AB000010290910202A0910302B09104020196FA
:100AC000A11DB11D8093010290930202A093030225
:100AD000B0930402BF91AF919F918F910F900FBE81
:100AE0000F901F9018956091010270910202809101
:100AF00003029091040227E0660F771F881F991F59
:100B00002A95D1F72DE730E040E050E00E945207EF
:100B1000CA01B9010895AF92BF92CF92DF92EF92CE
:100B2000FF920F931F935B016C010E9473057B0181
:100B30008C010E9473056E197F09800B910B6A1559
:100B40007B058C059D05A8F31F910F91FF90EF90F9
:100B5000DF90CF90BF90AF900895019751F0880F2C
:100B6000991F880F991F02972FB7F8940197F1F7F3
:100B70002FBF0895789410920102109202021092F1
:100B800003021092040284B5826084BD84B5816042
:100B900084BD85B5826085BD85B5816085BDEEE685
:100BA000F0E0808181608083E1E8F0E08081826014
:100BB0008083808181608083E0E8F0E080818160D3
:100BC0008083E1EBF0E0808184608083E0EBF0E003
:100BD000808181608083EAE7F0E0808184608083A7
:100BE0008081826080838081816080838081806851
:100BF00080831092C10008955058BB27AA270ED0B9
:100C00000BC1FCD030F001D120F031F49F3F11F442
:100C10001EF4F1C00EF4E095E7FBE7C0E92F0DD11B
:100C200080F3BA17620773078407950718F071F409
:100C30009EF525C10EF4E0950B2EBA2FA02D0B01C9
:100C4000B90190010C01CA01A0011124FF27591B11
:100C500099F0593F50F4503E68F11A16F040A22F17
:100C6000232F342F4427585FF3CF46953795279588
:100C7000A795F0405395C9F77EF41F16BA0B620B87
:100C8000730B840BBAF09150A1F0FF0FBB1F661FCE
:100C9000771F881FC2F70EC0BA0F621F731F841F11
:100CA00048F4879577956795B795F7959E3F08F037
:100CB000B3CF9395880F08F09927EE0F97958795F6
:100CC00008950CD0A9C0A1D040F098D030F021F404
:100CD0005F3F19F08AC05111D3C08DC0AED098F3D8
:100CE0009923C9F35523B1F3951B550BBB27AA27AD
:100CF00062177307840738F09F5F5F4F220F331F1F
:100D0000441FAA1FA9F333D00E2E3AF0E0E830D0EA
:100D100091505040E695001CCAF729D0FE2F27D0ED
:100D2000660F771F881FBB1F261737074807AB07BB
:100D3000B0E809F0BB0B802DBF01FF2793585F4F30
:100D40002AF09E3F510568F050C09AC05F3FECF317
:100D5000983EDCF3869577956795B795F7959F5FF5
:100D6000C9F7880F911D9695879597F90895E1E049
:100D7000660F771F881FBB1F621773078407BA07A8
:100D800020F0621B730B840BBA0BEE1F88F7E09503
:100D900008955BD088F09F5790F0B92F9927B751ED
:100DA000A0F0D1F0660F771F881F991F1AF0BA952F
:100DB000C9F712C0B13081F062D0B1E008955FC0D0
:100DC000672F782F8827B85F39F0B93FCCF3869525
:100DD00077956795B395D9F73EF490958095709582
:100DE00061957F4F8F4F9F4F089597F99F6780E8D8
:100DF00070E060E008959FEF80EC089500240A946D
:100E00001616170618060906089500240A941216E5
:100E10001306140605060895092E0394000C11F418
:100E2000882352F0BB0F40F4BF2B11F460FF04C0C5
:100E30006F5F7F4F8F4F9F4F089557FD9058440F1E
:100E4000551F59F05F3F71F04795880F97FB991F29
:100E500061F09F3F79F087950895121613061406E6
:100E6000551FF2CF4695F1DF08C016161706180673
:100E7000991FF1CF86957105610508940895E8944E
:100E8000BB2766277727CB0197F90895991B79E04F
:100E900004C0991F961708F0961B881F7A95C9F70A
:100EA00080950895A1E21A2EAA1BBB1BFD010DC05F
:100EB000AA1FBB1FEE1FFF1FA217B307E407F5070A
:100EC00020F0A21BB30BE40BF50B661F771F881FE6
:100ED000991F1A9469F760957095809590959B017C
:100EE000AC01BD01CF01089597FB092E05260ED058
:100EF00057FD04D0D7DF0AD0001C38F45095409538
:100F0000309521953F4F4F4F5F4F0895F6F79095DD
:100F10008095709561957F4F8F4F9F4F0895EE0F8D
:0C0F2000FF1F0590F491E02D0994FFCF15
:100F2C000102030405060708090A0B0C0D0E0F102D
:100F3C002030405060708090A0000070420C000087
:100F4C0001011F1C1F1E1F1E1F1F1E1F1E1FE0A0A6
:100F5C00A0A0E040C04040E0E020E080E0E0206065
:100F6C0020E0A0A0E02020E080E020E0E080E0A0F5
:100F7C00E0E020204040E0A0E0A0E0E0A0E020E0A5
:100F8C000040004000002040800000000000006095
:0A0F9C00600000000000006060002B
:00000001FF
